{
  "contractName": "LockableToken",
  "abi": [
    {
      "constant": false,
      "inputs": [
        {
          "name": "_spender",
          "type": "address"
        },
        {
          "name": "_value",
          "type": "uint256"
        }
      ],
      "name": "approve",
      "outputs": [
        {
          "name": "",
          "type": "bool"
        }
      ],
      "payable": false,
      "stateMutability": "nonpayable",
      "type": "function"
    },
    {
      "constant": true,
      "inputs": [],
      "name": "totalSupply",
      "outputs": [
        {
          "name": "",
          "type": "uint256"
        }
      ],
      "payable": false,
      "stateMutability": "view",
      "type": "function"
    },
    {
      "constant": false,
      "inputs": [
        {
          "name": "_from",
          "type": "address"
        },
        {
          "name": "_to",
          "type": "address"
        },
        {
          "name": "_value",
          "type": "uint256"
        }
      ],
      "name": "transferFrom",
      "outputs": [
        {
          "name": "",
          "type": "bool"
        }
      ],
      "payable": false,
      "stateMutability": "nonpayable",
      "type": "function"
    },
    {
      "constant": false,
      "inputs": [
        {
          "name": "_for",
          "type": "bytes32"
        },
        {
          "name": "_amount",
          "type": "uint256"
        },
        {
          "name": "_time",
          "type": "uint256"
        }
      ],
      "name": "lock",
      "outputs": [
        {
          "name": "",
          "type": "bool"
        }
      ],
      "payable": false,
      "stateMutability": "nonpayable",
      "type": "function"
    },
    {
      "constant": true,
      "inputs": [
        {
          "name": "_of",
          "type": "address"
        },
        {
          "name": "_for",
          "type": "bytes32"
        },
        {
          "name": "_time",
          "type": "uint256"
        }
      ],
      "name": "tokensLocked",
      "outputs": [
        {
          "name": "amount",
          "type": "uint256"
        }
      ],
      "payable": false,
      "stateMutability": "view",
      "type": "function"
    },
    {
      "constant": false,
      "inputs": [
        {
          "name": "_spender",
          "type": "address"
        },
        {
          "name": "_subtractedValue",
          "type": "uint256"
        }
      ],
      "name": "decreaseApproval",
      "outputs": [
        {
          "name": "",
          "type": "bool"
        }
      ],
      "payable": false,
      "stateMutability": "nonpayable",
      "type": "function"
    },
    {
      "constant": true,
      "inputs": [
        {
          "name": "_owner",
          "type": "address"
        },
        {
          "name": "_value",
          "type": "uint256"
        }
      ],
      "name": "balanceOf",
      "outputs": [
        {
          "name": "",
          "type": "uint256"
        }
      ],
      "payable": false,
      "stateMutability": "view",
      "type": "function"
    },
    {
      "constant": true,
      "inputs": [
        {
          "name": "",
          "type": "bytes32"
        },
        {
          "name": "_value",
          "type": "uint256"
        }
      ],
      "name": "locking_active",
      "outputs": [
        {
          "name": "",
          "type": "bool"
        }
      ],
      "payable": false,
      "stateMutability": "view",
      "type": "function"
    },
    {
      "constant": false,
      "inputs": [
        {
          "name": "_to",
          "type": "address"
        },
        {
          "name": "_value",
          "type": "uint256"
        }
      ],
      "name": "transfer",
      "outputs": [
        {
          "name": "",
          "type": "bool"
        }
      ],
      "payable": false,
      "stateMutability": "nonpayable",
      "type": "function"
    },
    {
      "constant": true,
      "inputs": [
        {
          "name": "_of",
          "type": "address"
        },
        {
          "name": "_spender",
          "type": "address"
        }
      ],
      "name": "transferableBalanceOf",
      "outputs": [
        {
          "name": "amount",
          "type": "uint256"
        }
      ],
      "payable": false,
      "stateMutability": "view",
      "type": "function"
    },
    {
      "constant": false,
      "inputs": [
        {
          "name": "_spender",
          "type": "address"
        },
        {
          "name": "_addedValue",
          "type": "uint256"
        },
        {
          "name": "_time",
          "type": "uint256"
        }
      ],
      "name": "increaseApproval",
      "outputs": [
        {
          "name": "",
          "type": "bool"
        }
      ],
      "payable": false,
      "stateMutability": "nonpayable",
      "type": "function"
    },
    {
      "constant": true,
      "inputs": [
        {
          "name": "_owner",
          "type": "address"
        },
        {
          "name": "_spender",
          "type": "address"
        }
      ],
      "name": "allowance",
      "outputs": [
        {
          "name": "",
          "type": "uint256"
        }
      ],
      "payable": false,
      "stateMutability": "view",
      "type": "function"
    },
    {
      "inputs": [
        {
          "name": "",
          "type": "uint256"
        },
        {
          "name": "_locked_for",
          "type": "uint256"
        }
      ],
      "payable": false,
      "stateMutability": "view",
      "type": "function",
      "constant": true,
      "name": "locked_for",
      "outputs": [
        {
          "name": "",
          "type": "bytes32"
        }
      ]
    },
    {
      "anonymous": false,
      "inputs": [
        {
          "indexed": true,
          "name": "_supply",
          "type": "uint256"
        },
        {
          "indexed": true,
          "name": "_locked_for",
          "type": "uint256"
        },
        {
          "indexed": false,
          "name": "_amount",
          "type": "uint256"
        },
        {
          "indexed": false,
          "name": "_validity",
          "type": "uint256"
        }
      ],
      "name": "Lock",
      "type": "constructor",
      "payable": false,
      "stateMutability": "nonpayable"
    },
    {
      "anonymous": false,
      "inputs": [
        {
          "indexed": true,
          "name": "_of",
          "type": "address"
        },
        {
          "indexed": true,
          "name": "_for",
          "type": "bytes32"
        },
        {
          "indexed": false,
          "name": "_amount",
          "type": "uint256"
        },
        {
          "indexed": false,
          "name": "_validity",
          "type": "uint256"
        }
      ],
      "name": "Lock",
      "type": "event"
    },
    {
      "anonymous": false,
      "inputs": [
        {
          "indexed": true,
          "name": "from",
          "type": "address"
        },
        {
          "indexed": true,
          "name": "to",
          "type": "address"
        },
        {
          "indexed": false,
          "name": "value",
          "type": "uint256"
        }
      ],
      "name": "Transfer",
      "type": "event"
    },
    {
      "anonymous": false,
      "inputs": [
        {
          "indexed": true,
          "name": "owner",
          "type": "address"
        },
        {
          "indexed": true,
          "name": "spender",
          "type": "address"
        },
        {
          "indexed": false,
          "name": "value",
          "type": "uint256"
        }
      ],
      "name": "Approval",
      "type": "event"
    }
  ],
  "bytecode": "0x606060405234156200001057600080fd5b6040516040806200178b833981016040528080519060200190919080519060200190919050508160058190555081600460003373ffffffffffffffffffffffffffffffffffffffff1673ffffffffffffffffffffffffffffffffffffffff1681526020019081526020016000208190555060008054806001018281620000979190620001c9565b916000526020600020900160007f43410000000000000000000000000000000000000000000000000000000000009091909150906000191690555060018060007f434100000000000000000000000000000000000000000000000000000000000060001916815260200190815260200160002060006101000a81548160ff02191690831515021790555060008054806001018281620001379190620001c9565b916000526020600020900160007f474f5600000000000000000000000000000000000000000000000000000000009091909150906000191690555060018060007f474f56000000000000000000000000000000000000000000000000000000000060001916815260200190815260200160002060006101000a81548160ff021916908315150217905550505062000220565b815481835581811511620001f357818360005260206000209182019101620001f29190620001f8565b5b505050565b6200021d91905b8082111562000219576000816000905550600101620001ff565b5090565b90565b61155b80620002306000396000f3006060604052600436106100c5576000357c0100000000000000000000000000000000000000000000000000000000900463ffffffff168063095ea7b3146100ca57806318160ddd1461012457806323b872dd1461014d5780632e82aaf2146101c65780633cd8e5a5146101ff578063661884631461026257806370a08231146102bc5780637b4ddb1014610309578063a9059cbb14610348578063c7d9f4d1146103a2578063d73dd623146103ef578063dd62ed3e14610449578063e5d27eb5146104b5575b600080fd5b34156100d557600080fd5b61010a600480803573ffffffffffffffffffffffffffffffffffffffff169060200190919080359060200190919050506104f4565b604051808215151515815260200191505060405180910390f35b341561012f57600080fd5b6101376105e6565b6040518082815260200191505060405180910390f35b341561015857600080fd5b6101ac600480803573ffffffffffffffffffffffffffffffffffffffff1690602001909190803573ffffffffffffffffffffffffffffffffffffffff169060200190919080359060200190919050506105f0565b604051808215151515815260200191505060405180910390f35b34156101d157600080fd5b6101fd600480803560001916906020019091908035906020019091908035906020019091905050610978565b005b341561020a57600080fd5b61024c600480803573ffffffffffffffffffffffffffffffffffffffff1690602001909190803560001916906020019091908035906020019091905050610ae6565b6040518082815260200191505060405180910390f35b341561026d57600080fd5b6102a2600480803573ffffffffffffffffffffffffffffffffffffffff16906020019091908035906020019091905050610c60565b604051808215151515815260200191505060405180910390f35b34156102c757600080fd5b6102f3600480803573ffffffffffffffffffffffffffffffffffffffff16906020019091905050610ef1565b6040518082815260200191505060405180910390f35b341561031457600080fd5b61032e600480803560001916906020019091905050610f3a565b604051808215151515815260200191505060405180910390f35b341561035357600080fd5b610388600480803573ffffffffffffffffffffffffffffffffffffffff16906020019091908035906020019091905050610f5a565b604051808215151515815260200191505060405180910390f35b34156103ad57600080fd5b6103d9600480803573ffffffffffffffffffffffffffffffffffffffff16906020019091905050611147565b6040518082815260200191505060405180910390f35b34156103fa57600080fd5b61042f600480803573ffffffffffffffffffffffffffffffffffffffff169060200190919080359060200190919050506111f2565b604051808215151515815260200191505060405180910390f35b341561045457600080fd5b61049f600480803573ffffffffffffffffffffffffffffffffffffffff1690602001909190803573ffffffffffffffffffffffffffffffffffffffff169060200190919050506113ee565b6040518082815260200191505060405180910390f35b34156104c057600080fd5b6104d66004808035906020019091905050611475565b60405180826000191660001916815260200191505060405180910390f35b600081600360003373ffffffffffffffffffffffffffffffffffffffff1673ffffffffffffffffffffffffffffffffffffffff16815260200190815260200160002060008573ffffffffffffffffffffffffffffffffffffffff1673ffffffffffffffffffffffffffffffffffffffff168152602001908152602001600020819055508273ffffffffffffffffffffffffffffffffffffffff163373ffffffffffffffffffffffffffffffffffffffff167f8c5be1e5ebec7d5bd14f71427d1e84f3dd0314c0f7b2291e5b200ac8c7c3b925846040518082815260200191505060405180910390a36001905092915050565b6000600554905090565b60008073ffffffffffffffffffffffffffffffffffffffff168373ffffffffffffffffffffffffffffffffffffffff161415151561062d57600080fd5b61063684611147565b821115151561064457600080fd5b600360008573ffffffffffffffffffffffffffffffffffffffff1673ffffffffffffffffffffffffffffffffffffffff16815260200190815260200160002060003373ffffffffffffffffffffffffffffffffffffffff1673ffffffffffffffffffffffffffffffffffffffff1681526020019081526020016000205482111515156106cf57600080fd5b61072182600460008773ffffffffffffffffffffffffffffffffffffffff1673ffffffffffffffffffffffffffffffffffffffff1681526020019081526020016000205461149990919063ffffffff16565b600460008673ffffffffffffffffffffffffffffffffffffffff1673ffffffffffffffffffffffffffffffffffffffff168152602001908152602001600020819055506107b682600460008673ffffffffffffffffffffffffffffffffffffffff1673ffffffffffffffffffffffffffffffffffffffff168152602001908152602001600020546114b290919063ffffffff16565b600460008573ffffffffffffffffffffffffffffffffffffffff1673ffffffffffffffffffffffffffffffffffffffff1681526020019081526020016000208190555061088882600360008773ffffffffffffffffffffffffffffffffffffffff1673ffffffffffffffffffffffffffffffffffffffff16815260200190815260200160002060003373ffffffffffffffffffffffffffffffffffffffff1673ffffffffffffffffffffffffffffffffffffffff1681526020019081526020016000205461149990919063ffffffff16565b600360008673ffffffffffffffffffffffffffffffffffffffff1673ffffffffffffffffffffffffffffffffffffffff16815260200190815260200160002060003373ffffffffffffffffffffffffffffffffffffffff1673ffffffffffffffffffffffffffffffffffffffff168152602001908152602001600020819055508273ffffffffffffffffffffffffffffffffffffffff168473ffffffffffffffffffffffffffffffffffffffff167fddf252ad1be2c89b69c2b068fc378daa952ba7f163c4a11628f55a4df523b3ef846040518082815260200191505060405180910390a3600190509392505050565b600061098d82426114b290919063ffffffff16565b905061099833611147565b83111515156109a657600080fd5b60016000856000191660001916815260200190815260200160002060009054906101000a900460ff1615156109da57600080fd5b600260003373ffffffffffffffffffffffffffffffffffffffff1673ffffffffffffffffffffffffffffffffffffffff168152602001908152602001600020600085600019166000191681526020019081526020016000208054806001018281610a4491906114ce565b916000526020600020906002020160006040805190810160405280878152602001858152509091909150600082015181600001556020820151816001015550505083600019163373ffffffffffffffffffffffffffffffffffffffff167fd173f98f4a2080eab40a0bff4d9a575753270cb2401c74efdec1feb0ba31b4268584604051808381526020018281526020019250505060405180910390a350505050565b600080600090505b600260008673ffffffffffffffffffffffffffffffffffffffff1673ffffffffffffffffffffffffffffffffffffffff1681526020019081526020016000206000856000191660001916815260200190815260200160002080549050811015610c585782600260008773ffffffffffffffffffffffffffffffffffffffff1673ffffffffffffffffffffffffffffffffffffffff1681526020019081526020016000206000866000191660001916815260200190815260200160002082815481101515610bb757fe5b9060005260206000209060020201600101541115610c4b57600260008673ffffffffffffffffffffffffffffffffffffffff1673ffffffffffffffffffffffffffffffffffffffff1681526020019081526020016000206000856000191660001916815260200190815260200160002081815481101515610c3457fe5b906000526020600020906002020160000154820191505b8080600101915050610aee565b509392505050565b600080600360003373ffffffffffffffffffffffffffffffffffffffff1673ffffffffffffffffffffffffffffffffffffffff16815260200190815260200160002060008573ffffffffffffffffffffffffffffffffffffffff1673ffffffffffffffffffffffffffffffffffffffff16815260200190815260200160002054905080831115610d71576000600360003373ffffffffffffffffffffffffffffffffffffffff1673ffffffffffffffffffffffffffffffffffffffff16815260200190815260200160002060008673ffffffffffffffffffffffffffffffffffffffff1673ffffffffffffffffffffffffffffffffffffffff16815260200190815260200160002081905550610e05565b610d84838261149990919063ffffffff16565b600360003373ffffffffffffffffffffffffffffffffffffffff1673ffffffffffffffffffffffffffffffffffffffff16815260200190815260200160002060008673ffffffffffffffffffffffffffffffffffffffff1673ffffffffffffffffffffffffffffffffffffffff168152602001908152602001600020819055505b8373ffffffffffffffffffffffffffffffffffffffff163373ffffffffffffffffffffffffffffffffffffffff167f8c5be1e5ebec7d5bd14f71427d1e84f3dd0314c0f7b2291e5b200ac8c7c3b925600360003373ffffffffffffffffffffffffffffffffffffffff1673ffffffffffffffffffffffffffffffffffffffff16815260200190815260200160002060008873ffffffffffffffffffffffffffffffffffffffff1673ffffffffffffffffffffffffffffffffffffffff168152602001908152602001600020546040518082815260200191505060405180910390a3600191505092915050565b6000600460008373ffffffffffffffffffffffffffffffffffffffff1673ffffffffffffffffffffffffffffffffffffffff168152602001908152602001600020549050919050565b60016020528060005260406000206000915054906101000a900460ff1681565b60008073ffffffffffffffffffffffffffffffffffffffff168373ffffffffffffffffffffffffffffffffffffffff1614151515610f9757600080fd5b610fa033611147565b8211151515610fae57600080fd5b61100082600460003373ffffffffffffffffffffffffffffffffffffffff1673ffffffffffffffffffffffffffffffffffffffff1681526020019081526020016000205461149990919063ffffffff16565b600460003373ffffffffffffffffffffffffffffffffffffffff1673ffffffffffffffffffffffffffffffffffffffff1681526020019081526020016000208190555061109582600460008673ffffffffffffffffffffffffffffffffffffffff1673ffffffffffffffffffffffffffffffffffffffff168152602001908152602001600020546114b290919063ffffffff16565b600460008573ffffffffffffffffffffffffffffffffffffffff1673ffffffffffffffffffffffffffffffffffffffff168152602001908152602001600020819055508273ffffffffffffffffffffffffffffffffffffffff163373ffffffffffffffffffffffffffffffffffffffff167fddf252ad1be2c89b69c2b068fc378daa952ba7f163c4a11628f55a4df523b3ef846040518082815260200191505060405180910390a36001905092915050565b6000806000809150600090505b600080549050811015611197576111868460008381548110151561117457fe5b90600052602060002090015442610ae6565b820191508080600101915050611154565b6111e982600460008773ffffffffffffffffffffffffffffffffffffffff1673ffffffffffffffffffffffffffffffffffffffff1681526020019081526020016000205461149990919063ffffffff16565b92505050919050565b600061128382600360003373ffffffffffffffffffffffffffffffffffffffff1673ffffffffffffffffffffffffffffffffffffffff16815260200190815260200160002060008673ffffffffffffffffffffffffffffffffffffffff1673ffffffffffffffffffffffffffffffffffffffff168152602001908152602001600020546114b290919063ffffffff16565b600360003373ffffffffffffffffffffffffffffffffffffffff1673ffffffffffffffffffffffffffffffffffffffff16815260200190815260200160002060008573ffffffffffffffffffffffffffffffffffffffff1673ffffffffffffffffffffffffffffffffffffffff168152602001908152602001600020819055508273ffffffffffffffffffffffffffffffffffffffff163373ffffffffffffffffffffffffffffffffffffffff167f8c5be1e5ebec7d5bd14f71427d1e84f3dd0314c0f7b2291e5b200ac8c7c3b925600360003373ffffffffffffffffffffffffffffffffffffffff1673ffffffffffffffffffffffffffffffffffffffff16815260200190815260200160002060008773ffffffffffffffffffffffffffffffffffffffff1673ffffffffffffffffffffffffffffffffffffffff168152602001908152602001600020546040518082815260200191505060405180910390a36001905092915050565b6000600360008473ffffffffffffffffffffffffffffffffffffffff1673ffffffffffffffffffffffffffffffffffffffff16815260200190815260200160002060008373ffffffffffffffffffffffffffffffffffffffff1673ffffffffffffffffffffffffffffffffffffffff16815260200190815260200160002054905092915050565b60008181548110151561148457fe5b90600052602060002090016000915090505481565b60008282111515156114a757fe5b818303905092915050565b600081830190508281101515156114c557fe5b80905092915050565b8154818355818115116114fb576002028160020283600052602060002091820191016114fa9190611500565b5b505050565b61152c91905b8082111561152857600080820160009055600182016000905550600201611506565b5090565b905600a165627a7a72305820e810d51de1f60f69442413cd1eb301ff7f6488869a5f498f106a3d79853f2be40029",
  "source": "pragma solidity ^0.4.18;\r\n\r\n\r\nimport \"./SafeMath.sol\";\r\n\r\n\r\ncontract LockableToken   {\r\n  using SafeMath for uint256;\r\n\r\n  /**\r\n   * @dev Utilities for which a token can be locked\r\n   */\r\n  bytes32[] public locked_for;\r\n  \r\n  /**\r\n   * @dev Ability to fetch whether a given utility is active for locking\r\n   */\r\n  mapping(bytes32=>bool) public locking_active;\r\n  \r\n  struct lockToken{\r\n      uint256 amount;\r\n      uint256 validity;\r\n   }\r\n\r\n  /**\r\n   * @dev Holds number & validity of tokens locked for a given purpose for a given member address\r\n   */\r\n   mapping(address=>mapping(bytes32=>lockToken[])) locked;\r\n   event Lock(address indexed _of,bytes32 indexed _for,uint256 _amount,uint256 _validity);\r\n\r\n   function LockableToken(uint256 _supply,uint256 _locked_for)\r\n   {\r\n       totalSupply_=_supply;\r\n       balances[msg.sender]=_supply;\r\n       //Utility - Claims Assesssment\r\n       locked_for.push(\"CA\");\r\n       locking_active[\"CA\"]=true;\r\n       //Utility  - Governance\r\n       locked_for.push(\"GOV\");\r\n       locking_active[\"GOV\"]=true;\r\n       \r\n   }\r\n  /**\r\n   * @dev Returns tokens locked for a specified address for a specified purpose at a specified time\r\n   * @param _of The address to query the the lock tokens of \r\n   * @param _for The purpose to query the the lock tokens for\r\n   * @param _time The timestamp to query the the lock tokens for\r\n   */\r\n   function tokensLocked(address _of,bytes32 _for,uint256 _time) view returns (uint256 amount)\r\n   {\r\n       \r\n       for(uint256 i=0;i<locked[_of][_for].length;i++)\r\n        {\r\n            if(locked[_of][_for][i].validity>_time)\r\n                amount+=locked[_of][_for][i].amount;\r\n         }\r\n      \r\n   }\r\n  /**\r\n   * @dev Returns tokens available for transfer for a specified address\r\n   * @param _of The address to query the the lock tokens of    \r\n   */\r\n   function transferableBalanceOf(address _of)  view returns (uint256 amount)\r\n   {\r\n       uint256 lockedAmount=0;\r\n       for(uint256 i=0;i<locked_for.length;i++)\r\n        lockedAmount+=tokensLocked(_of,locked_for[i],block.timestamp);\r\n        \r\n        amount=balances[_of].sub(lockedAmount);\r\n       \r\n       \r\n   }\r\n  /**\r\n   * @dev Locks a specified amount of tokens against an address, for a specified purpose and time\r\n   * @param _for The purpose to lock tokens \r\n   * @param _amount Number of tokens to be locked\r\n   * @param _time Lock time in seconds\r\n   */\r\n   function lock(bytes32 _for,uint256 _amount,uint256 _time)\r\n   {\r\n    uint256 validUntil=block.timestamp.add(_time);\r\n    require(_amount <= transferableBalanceOf(msg.sender));\r\n    require(locking_active[_for]);\r\n    locked[msg.sender][_for].push(lockToken(_amount,validUntil));\r\n    Lock(msg.sender,_for,_amount,validUntil);\r\n       \r\n   }\r\n   \r\n \r\n  mapping (address => mapping (address => uint256)) internal allowed;\r\n  \r\n  event Transfer(address indexed from, address indexed to, uint256 value);\r\n  \r\n  event Approval(\r\n    address indexed owner,\r\n    address indexed spender,\r\n    uint256 value\r\n  );\r\n\r\n  /**\r\n   * @dev Transfer tokens from one address to another\r\n   * @param _from address The address which you want to send tokens from\r\n   * @param _to address The address which you want to transfer to\r\n   * @param _value uint256 the amount of tokens to be transferred\r\n   */\r\n  function transferFrom(\r\n    address _from,\r\n    address _to,\r\n    uint256 _value\r\n  )\r\n    public\r\n    returns (bool)\r\n  {\r\n    require(_to != address(0));\r\n    require(_value <= transferableBalanceOf(_from));\r\n    require(_value <= allowed[_from][msg.sender]);\r\n\r\n    balances[_from] = balances[_from].sub(_value);\r\n    balances[_to] = balances[_to].add(_value);\r\n    allowed[_from][msg.sender] = allowed[_from][msg.sender].sub(_value);\r\n    Transfer(_from, _to, _value);\r\n    return true;\r\n  }\r\n\r\n  /**\r\n   * @dev Approve the passed address to spend the specified amount of tokens on behalf of msg.sender.\r\n   *\r\n   * Beware that changing an allowance with this method brings the risk that someone may use both the old\r\n   * and the new allowance by unfortunate transaction ordering. One possible solution to mitigate this\r\n   * race condition is to first reduce the spender's allowance to 0 and set the desired value afterwards:\r\n   * https://github.com/ethereum/EIPs/issues/20#issuecomment-263524729\r\n   * @param _spender The address which will spend the funds.\r\n   * @param _value The amount of tokens to be spent.\r\n   */\r\n  function approve(address _spender, uint256 _value) public returns (bool) {\r\n    allowed[msg.sender][_spender] = _value;\r\n    Approval(msg.sender, _spender, _value);\r\n    return true;\r\n  }\r\n\r\n  /**\r\n   * @dev Function to check the amount of tokens that an owner allowed to a spender.\r\n   * @param _owner address The address which owns the funds.\r\n   * @param _spender address The address which will spend the funds.\r\n   * @return A uint256 specifying the amount of tokens still available for the spender.\r\n   */\r\n  function allowance(\r\n    address _owner,\r\n    address _spender\r\n   )\r\n    public\r\n    view\r\n    returns (uint256)\r\n  {\r\n    return allowed[_owner][_spender];\r\n  }\r\n\r\n  /**\r\n   * @dev Increase the amount of tokens that an owner allowed to a spender.\r\n   *\r\n   * approve should be called when allowed[_spender] == 0. To increment\r\n   * allowed value is better to use this function to avoid 2 calls (and wait until\r\n   * the first transaction is mined)\r\n   * From MonolithDAO Token.sol\r\n   * @param _spender The address which will spend the funds.\r\n   * @param _addedValue The amount of tokens to increase the allowance by.\r\n   */\r\n  function increaseApproval(\r\n    address _spender,\r\n    uint _addedValue\r\n  )\r\n    public\r\n    returns (bool)\r\n  {\r\n    allowed[msg.sender][_spender] = (\r\n      allowed[msg.sender][_spender].add(_addedValue));\r\n    Approval(msg.sender, _spender, allowed[msg.sender][_spender]);\r\n    return true;\r\n  }\r\n\r\n  /**\r\n   * @dev Decrease the amount of tokens that an owner allowed to a spender.\r\n   *\r\n   * approve should be called when allowed[_spender] == 0. To decrement\r\n   * allowed value is better to use this function to avoid 2 calls (and wait until\r\n   * the first transaction is mined)\r\n   * From MonolithDAO Token.sol\r\n   * @param _spender The address which will spend the funds.\r\n   * @param _subtractedValue The amount of tokens to decrease the allowance by.\r\n   */\r\n  function decreaseApproval(\r\n    address _spender,\r\n    uint _subtractedValue\r\n  )\r\n    public\r\n    returns (bool)\r\n  {\r\n    uint oldValue = allowed[msg.sender][_spender];\r\n    if (_subtractedValue > oldValue) {\r\n      allowed[msg.sender][_spender] = 0;\r\n    } else {\r\n      allowed[msg.sender][_spender] = oldValue.sub(_subtractedValue);\r\n    }\r\n    Approval(msg.sender, _spender, allowed[msg.sender][_spender]);\r\n    return true;\r\n  }\r\n  \r\n   mapping(address => uint256) balances;\r\n\r\n  uint256 totalSupply_;\r\n\r\n  /**\r\n  * @dev total number of tokens in existence\r\n  */\r\n  function totalSupply() public view returns (uint256) {\r\n    return totalSupply_;\r\n  }\r\n\r\n  /**\r\n  * @dev transfer token for a specified address\r\n  * @param _to The address to transfer to.\r\n  * @param _value The amount to be transferred.\r\n  */\r\n  function transfer(address _to, uint256 _value) public returns (bool) {\r\n    require(_to != address(0));\r\n    require(_value <= transferableBalanceOf(msg.sender));\r\n\r\n    balances[msg.sender] = balances[msg.sender].sub(_value);\r\n    balances[_to] = balances[_to].add(_value);\r\n    Transfer(msg.sender, _to, _value);\r\n    return true;\r\n  }\r\n\r\n  /**\r\n  * @dev Gets the balance of the specified address.\r\n  * @param _owner The address to query the the balance of.\r\n  * @return An uint256 representing the amount owned by the passed address.\r\n  */\r\n  function balanceOf(address _owner) public view returns (uint256) {\r\n    return balances[_owner];\r\n  }\r\n\r\n}",
  "sourcePath": "D:\\GovBlocks\\Lockable Token bytes32\\contracts\\LockableToken.sol",
  "compiler": {
    "name": "solc",
    "version": "0.4.18+commit.9cf6e910.Emscripten.clang"
  },
  "schemaVersion": "1.0.1",
  "updatedAt": "2018-06-04T09:12:21.098Z"
}